:020000040800F2
:10000000100800209D010008654D0008593D0008BA
:10001000614D0008E5070008555D0008000000007C
:10002000000000000000000000000000355600083D
:10003000F5070008000000004D550008395600087B
:10004000B7010008B7010008B7010008B7010008B0
:10005000B7010008B7010008B7010008B7010008A0
:10006000B7010008B7010008B7010008B701000890
:10007000E9070008B7010008B7010008B701000848
:10008000B7010008B7010008B7010008B701000870
:10009000B7010008B7010008B7010008F907000818
:1000A000B7010008B7010008B7010008B701000850
:1000B000015700080D570008B7010008B7010008F4
:1000C000B7010008B7010008B7010008B701000830
:1000D000B70100083D5D0008B7010008495D000850
:1000E000B7010008B7010008B7010008B701000810
:1000F000B7010008B7010008B7010008B701000800
:10010000B7010008B7010008B7010008B7010008EF
:10011000B7010008B7010008B7010008B7010008DF
:10012000B7010008B7010008B7010008B7010008CF
:10013000B7010008B7010008B7010008B7010008BF
:10014000B7010008B7010008B7010008B7010008AF
:10015000B7010008B7010008B7010008B70100089F
:10016000B7010008B7010008B7010008B70100088F
:10017000B7010008B7010008B7010008000000003F
:10018000B7010008B7010008DFF80CD000F0CCFA86
:1001900000480047D95D0008100800200648804745
:1001A00006480047FEE7FEE7FEE7FEE7FEE7FEE75C
:1001B000FEE7FEE7FEE7FEE7ED56000889010008CE
:1001C0002DE9F05F0546002092469B46884606468C
:1001D000814640241BE0284641464746224600F01F
:1001E000F4F953465A46C01A914110D311461846A5
:1001F000224600F0DBF92D1A67EB01084F46224634
:100200000120002100F0D2F917EB00094E41201E19
:10021000A4F10104DFDC484631462A464346BDE8E6
:10022000F09F421C10F8011B0029FBD1801A704777
:100230002DE9FE4F804681EA0300C00F0C46009076
:1002400021F0004123F00045B8EB0200A94105D29E
:100250004046214690461C460B46024623F000408D
:10026000104347D0270DC7F30A00C3F30A51029089
:10027000401A019040286BDAC3F3130040F4801B4E
:100280000098924620B10023D2EB030A63EB0B0BDC
:1002900001985946C0F14002504600F087F90646E1
:1002A0000D4650465946019A00F09FF910EB0800A0
:1002B0006141002487EA115284EAE7731A4340D06F
:1002C000009A62B3019A012A4FEA075215DC001B1B
:1002D00061EB02014FF0004202EA0752CDE9004211
:1002E000001C41F5801132462B4600F09FF903B007
:1002F000BDE8F08F40462146F9E7001B61EB0201A3
:10030000001C41F5801300185B412018A2F500176E
:1003100047EB030140EAD570B6196D4111E06D0855
:100320004FEA360645EAC0754FEA0752001B61EBFB
:100330000201001C41F5801149084FEA3000001904
:10034000514132462B4603B0BDE8F04F00F05FB993
:100350000098012240000023D0EB020263EBE0731F
:10036000009821464FEAE074B8EB000061EB04010D
:10037000E9E783F000435BE781F0004158E72DE9AE
:10038000FE4F81EA030404F0004421F00041009490
:100390004FF0000B23F0004350EA01045ED052EA14
:1003A00003045BD0C3F30A54C1F30A552C44A4F2EE
:1003B000F3340194A0FB0254C1F3130141F4801102
:1003C000C3F3130343F4801301FB024400FB034E09
:1003D000840A970A44EA815447EA8357A4FB0768D2
:1003E00002958D0A05FB07854FEA932C04FB0C54FC
:1003F0002705029D4FEA065847EA1637B5EB080570
:100400006EEB070C870E920E47EA811742EA8312C1
:10041000A7FB0201B6EB0B0164EB00042B0D43EAD2
:100420000C335E1844EB1C50DA465146E7FB0201E0
:10043000C5F313044FEA0B3343EA14534FEA043273
:10044000019C43EA0603A4F10C040294009CCDE94C
:1004500000B400F0EBF803B0BDE8F08F00200146D7
:10046000F9E72DE9F04D81EA030404F0004B21F097
:10047000004514464FF0000A23F0004150EA0502FF
:1004800020D054EA01021DD0C5F30A570246C5F335
:100490001303C1F31300C1F30A5640F4801543F46B
:1004A0008013A7EB0608101BD64608F2FD3873EB45
:1004B000050002D308F1010801E092185B41B8F190
:1004C000000F03DA00200146BDE8F08D00204FF454
:1004D0008011064684460EE0171B73EB050705D313
:1004E000121B63EB050306434CEA010C49084FEA73
:1004F000300092185B4150EA0107EDD152EA030047
:1005000012D082EA040083EA0501084305D0101BDB
:10051000AB4106D20122002306E000224FF0004347
:1005200002E06FF0010253101AEB06004CEB085189
:1005300010EB0A0041EB0B01BDE8F04D00F067B88D
:100540000EB540F2334102910021CDE900110A4677
:100550000B4600F06BF803B000BD00F0004230F035
:1005600000400AD0C10D01F56071C0F3160042EAE7
:100570000151C208400711437047002001467047EF
:1005800030B50B46014600202022012409E021FA63
:1005900002F59D4205D303FA02F5491B04FA02F560
:1005A0002844151EA2F10102F1DC30BD202A04DB33
:1005B000203A00FA02F1002070479140C2F1200376
:1005C00020FA03F3194390407047202A04DB203AB5
:1005D00021FA02F00021704721FA02F3D040C2F163
:1005E00020029140084319467047202A06DBCB17AA
:1005F000203A41FA02F043EAE07306E041FA02F3DE
:10060000D040C2F12002914008431946704710B50E
:10061000141E73F1000408DA401C41F10001921825
:100620005B411A4301D120F0010010BD2DE9F04DCE
:1006300092469B4611B1B1FA81F202E0B0FA80F223
:1006400020329046FFF7B2FF04460F4640EA0A0008
:1006500041EA0B0153465A46084313D0114653EA68
:10066000010019D0C8F140025046FFF7AEFF054621
:100670000E46504659464246FFF798FF084305D0BC
:10068000012004E020463946BDE8F08D00200543F6
:1006900046EAE0762C4337430A986305E40AA0EB68
:1006A00008000022FD0A44EA47540A3002D500201F
:1006B0000146E9E7010510196941DDE9084500191E
:1006C0006941BDE8F04DA2E7C1F30A52C1F313013D
:1006D00040F2FF3341F480119A4202DA00200146D1
:1006E000704740F233439A42A2F2334202DC524254
:1006F000FFF76BBFFFF75ABF30B5041E71F100045E
:1007000004DB4FF00044404264EB0101141E73F11E
:10071000000405DB1C464FF00043524263EB040328
:10072000994208BF904230BD1CB509480090094865
:1007300001900546009C06E0E06840F0010394E863
:10074000070098471034AC42F6D3FFF721FD0000B4
:10075000046B0008246B00080146806B036C026C7C
:1007600013F0500F08D0D20648BF00F019B9806BC3
:10077000C26C0846104700BF42F400710164016872
:100780008A6812F0405F01D000F006B9027E002AAC
:10079000FAD1CA6A12F4700F02D08A685205F3D4F3
:1007A0004A6822F020024A60016C21F480710164E1
:1007B000016CC90448BF00F0EFB8016C41F00101C1
:1007C000016400F0E9B80000806B40210164416CD5
:1007D00041F00401416400F0E3B80000806B00F0D8
:1007E000DDB80000FEE7000040F2DC00C2F20000CD
:1007F00000F00CBB704700004FF4807000F000BDAB
:10080000EFF3108072B600BFFEE7000070B54268DB
:10081000044600200E4600259047A2682046AB21E2
:1008200090477EB1A268204600219047A2682046EA
:1008300000219047A268204600219047E1682046A9
:1008400088470546616801208847284670BD00003A
:1008500070B581B00022009290F83C20012A03D1AB
:100860000221084601B070BD0E6801220A2E80F8F0
:100870003C2009D3B2B25200D0F800E012FA86F25E
:100880001E3A0EF10C0305E0D0F800E006EB46023C
:100890000EF110034FF0070C1D680CFA02F4A5438B
:1008A0001D608D681C6805FA02F222431A604968CF
:1008B00006290FD801EB81014A1F71461F2351F809
:1008C000345F934025EA03030B60B3B203FA02F2EC
:1008D00014E000BF01EB81030C29B2B204D87146C9
:1008E00051F8304F233B03E0714651F82C4F413B08
:1008F0001F259D4024EA05059A400D600B6842F2D1
:10090000043CC4F2010C1A43ACF541739E450A60E5
:100910003BD1122E06D1DCF8001041F48001CCF856
:10092000001032E026F0010110292ED1DCF8001071
:10093000102E41F40001CCF8001026D140F218012D
:10094000C2F2000109684DF68362C4F21B32A1FBBA
:100950000212910C01EB8101490000910099A1B1B3
:10096000009901390091009979B1009901390091FC
:10097000009951B1009901390091009929B100996C
:100980000139009100990029EAD1002180F83C103A
:10099000084601B070BD00007047000070470000BD
:1009A00070470000002804BF0120704710B50446BE
:1009B000006C00283ED0206CC00645D4206C41F26B
:1009C00002118843023042F204312064C4F2010172
:1009D000086820F4403008600A6894E809101A4357
:1009E000D4F810E00A604168012321F4807141606D
:1009F0004168C0F6007341EA0E214160416821F070
:100A000040714160416841EA0C014160816821F414
:100A100000618160E168826811438160A16A826837
:100A2000994222F070628260826813D122F04051B4
:100A300019E000BF204600F065F80020606484F8EB
:100A40003C00206CC006B9D50120002184F83C1080
:100A500010BD00BF11438160816821F04051816069
:100A6000E16A826811438160816821F0020181603E
:100A70008168227E94F8203041EA42018160416819
:100A800083B141F40061416041684EF2000221F4FB
:100A900060414160616ACFF6FF72436802EB413109
:100AA000194301E021F400614160C16A40F2000C89
:100AB00021F47001C162E2696169CFF6F07CC36A1A
:100AC0000CEB02521A43C262826822F40072826006
:100AD00094F83020836843EA42228260826822F4DC
:100AE00080628260826842EA8121816000206064C5
:100AF000216C012262F301012164002184F83C1081
:100B000010BD000070B586B0044642F200002168B6
:100B1000C4F20100002681420596049602D006B078
:100B200070BD00BF43F630010096C4F202014A696D
:100B300000F5684042F480724A614A6902F48072AA
:100B40000092009A00960A6842F004020A6009685E
:100B500001F0040100910099022101910321CDE9E6
:100B6000021601A900F058FB40F27C0546F2104045
:100B7000C2F20005C4F202004FF48061C5E900062C
:100B800005F110004FF480524FF480434FF4807C05
:100B900080E80E104FF44030C5E908062846C5E944
:100BA000026600F013FA002818BFFFF729FEA563BC
:100BB000AC6306B070BD0000B0B582B00446002042
:100BC000019094F83C00012802D1022002B0B0BD8F
:100BD00094460A460120216884F83C008868C007D2
:100BE00029D188684DF6836540F00100886040F2A5
:100BF0001800C2F200000068C4F21B35A0FB050516
:100C0000A80C00EB400001900198A0B101980138B8
:100C10000190019878B1019801380190019850B184
:100C2000019801380190019828B10198013801908C
:100C300001980028EAD18868C00503D5886820F4A7
:100C4000807088608D68206CED0709D140F010003D
:100C50002064606C40F001006064002002B0B0BD10
:100C600040F20175A84300F5807020644868400593
:100C700004D5206C012565F30D302064256C00201F
:100C8000ED044FF0000544BF656C25F00605656472
:100C900084F83C00A06B40F2597540F2DD73C0F659
:100CA0000005C0F60003C0E90F5340F2C973C0F657
:100CB0000003C3646FF022030B604B6842F2080527
:100CC00043F080634B608B68C4F2010543F480738A
:100CD0008B604C31634600F02BFAD5F8FC1220688B
:100CE000C9060FD0A5F108018842B6D1286810F0D6
:100CF000405FB2D1286840F080402860002002B0F8
:100D0000B0BD00BF42F20001C4F20101884217D019
:100D100042F20021C4F2010188420DD042F20011DA
:100D2000C4F20101884298D1D5F8FC12C90607D057
:100D300005F5FC71884290D1D5F8FC12C9068CD417
:100D4000816811F0405F7FF488AF816841F0804195
:100D50008160002002B0B0BD70B5866D044600F021
:100D600035FB94F83510022928D105462068216CFE
:100D7000026822F016020260426922F0800242619B
:100D800009B9A16C19B1016821F00801016001687D
:100D900021F00101016000BF20680068C00715D084
:100DA00000F014FB401B0628F6D3202060650320CA
:100DB00084F83500002184F8341070BD802060650F
:100DC0000120002184F8341070BD00BFE06D3F2188
:100DD00001FA00F0B060012084F835000020002105
:100DE00084F8341070BD000090F83510022909D144
:100DF000052180F835100068016821F001010160CB
:100E0000002070478021416501207047F0B581B016
:100E100004460020009040F21800C2F20000026870
:100E2000D4E9166048F2B51337680821C1F64E338D
:100E300081403942A2FB03250CD0226813685B076E
:100E400008D5136823F004031360B160616D41F0AD
:100E50000101616501218140394208D0226852694F
:100E6000120604D5B160616D41F002016165042193
:100E70008140394208D022681268920704D5B160D7
:100E8000616D41F00401616510218140394217D044
:100E900020680268120713D5B16002680168520326
:100EA00008D4C90508D4016821F008010160216C4B
:100EB00021B905E008033FD4216C09B120468847D9
:100EC000E16D202000FA01F23A4241D02068036827
:100ED000DB063DD5B26094F835300268052B1BD196
:100EE00022F016020260426922F080024261226C06
:100EF0000AB9A26C1AB1026822F0080202603F200F
:100F00008840B060012084F83500216D0020002960
:100F100084F8340052D157E00168520310D4C90557
:100F200012D4016821F010010160012084F835001D
:100F3000002084F8340007E0A16C0029BED1BFE78F
:100F4000080301D4616C00E0E16B09B120468847D9
:100F5000606DC8B3606DC0072ED0052084F83500E1
:100F60002068A90A026822F001020260009A013298
:100F70008A4200921AD80268D20717D0009A01322A
:100F80008A42009212D80268D2070FD0009A01322A
:100F90008A4200920AD80268D20707D0009A01322A
:100FA0008A42009202D80268D207DFD1012084F879
:100FB0003500002084F83400E16C29B1204601B0EE
:100FC000BDE8F040084700BF01B0F0BD2DE9F04199
:100FD000044600F0FBF9ECB10546022084F8350028
:100FE0000020216884F83400086820F001000860BF
:100FF00021680868C00711D000F0E8F9401B0528F7
:10100000F6D9032520230320636584F83550BDE815
:10101000F08100BF0120BDE8F08100BF086848F200
:101020003F02CFF21002D4E9013500EA020C04F1CC
:101030000C0898E8C10143EA0C032B431843D4E998
:10104000072E304338431043626A40EA0E00042AF8
:1010500040EA08031CD1206BD4E90A2E40EA0E00B6
:10106000184308604869BEF1000F20F0030040EA11
:10107000020040F0040C11D0B8F5005F36D0B8F192
:10108000000F45D1022A46D0012A3BD032B942E0B6
:101090000B60486920F0070040EA020C01F0F800FC
:1010A0004AF6AB221038CAF6AA22A0FB02231A097C
:1010B00046F6DC23C1F814C0C0F600039A5C40F287
:1010C000FF335F284FF03F0021EA030100FA02F0EE
:1010D00088BF0431C4E9161288600023012500206E
:1010E000636584F83550BDE8F08100BF032AD5D888
:1010F000012540230120DFE802F0030E030500BFB5
:1011000082E700BFAEF1C070B0FA80F0400904E0A1
:10111000032A04D3C2D1CEF300600028BED001253B
:1011200040230120636584F83550BDE8F08100005C
:1011300090F834C0BCF1010F04BF0220704770B5B5
:101140004FF0010C80F834C0D0F858E090F835C06A
:10115000BCF1010F38D14FF0020C80F835C04FF0D0
:10116000000CC0F854C0D0F800C08468056CC06D95
:10117000DCF80060402C26F48026CCF80060CCF827
:1011800004300B4604BF13460A463F2101FA00F023
:10119000CCF80830CCF80C20CEF80800DCF80000C1
:1011A00040F01600CCF800002DB1DCF8000040F053
:1011B0000800CCF80000DCF8000040F00100CCF89A
:1011C0000000002070BD00BF002180F83410022014
:1011D00070BD0000B0B5044600F0F8F8054640F2D6
:1011E0000000C2F200000078611C18BF044400BF78
:1011F00000F0ECF8401BA042FAD3B0BD70470000ED
:1012000043F61441C4F201010A68024214BF0860A7
:101210007047FFF7F3BF00002DE9F04F82B000F1F7
:101220003E4707F1FF77860546EA972741F60046D5
:10123000C4F20206082243F6004EB04208BF07225D
:10124000C4F2010E072F38BF3A46002600274FF0A0
:101250000008009209E000BF08F101080237B8F168
:10126000100F06F1040600F0A1800D68012202FAB9
:1012700008F415EA0409EFD0D1F804B003220BF00A
:10128000030CACF10105BA40012D6FEA020A0FD838
:101290008268CD6802EA0A02BD402A438260426841
:1012A000A243CBF3001404FA08F42243426005E0A1
:1012B000BCF1030F02D14FF0030C1EE0C2688C6832
:1012C00002EA0A02BC402243BCF1020FC26014D100
:1012D0006FF0030202EA58020244D2F820C006F07E
:1012E0001C040F230D69A3402CEA0303A5402B43E4
:1012F0001362D1F804B00BF0030C02680CFA07F388
:1013000002EA0A021A431BF4403F0260A4D0002202
:1013100043F644030192C4F202031A684FF6084CE4
:1013200042F480421A601A68CFF6FF7C02F48042D1
:101330000192019A28F00302724452F80C3006F030
:101340000C050F24AC40A343009C04FA05F52B4385
:1013500042F80C30DEF800204B6842EA0905DC0355
:1013600058BF22EA0905CEF80050DEF804209C039D
:1013700042EA090558BF22EA0905CEF80450DEF812
:101380000820DC0242EA090543F60C4458BF22EA71
:101390000905CEF80850C4F2010422689B0242EA13
:1013A000090558BF22EA0905256055E702B0BDE8E6
:1013B000F08F00000069084018BF0120704700004E
:1013C000002A08BF090481617047000040F2FC3028
:1013D000C2F2000000687047002804BF0120704777
:1013E000F0B581B0044690F83D0028B9002084F89B
:1013F0003C00204600F046FB242084F83D00206895
:10140000016821F001010160016841F400410160BF
:10141000016821F40041016000F0D6FC636848F2E5
:10142000A16CC0F2010C40F60011C0F23D01634511
:101430003CBF48F28041C0F21E01884202D2012026
:1014400001B0F0BD4DF68361C4F21B31A0FB011267
:101450002168970CD1F804E04FF496762EF03F0502
:1014600045EA92454D60774348F638160D6AC0F25A
:101470004106A7FB067625F03F07634538BF960C6B
:10148000721C3A430A62CA6948F2A0664CF6FF77BA
:10149000C0F20106B34222EA07020BD801385B0012
:1014A000B0FBF3F001306FF31F30042898BF042025
:1014B0001BE000BFA768013857B119277B43B0FB79
:1014C000F3F001306FF31F3070B100F5804007E09A
:1014D00003EB4303B0FBF3F001306FF31F3018B19F
:1014E00000F5004001E000BF01201043C86108681A
:1014F000D4E9072320F0C00010431843086088682F
:1015000048F2FF3204F10C0790438CCF184310438C
:10151000A6698860C86820F0FF0038433043C8607F
:10152000086840F00100086000202021206484F851
:101530003D10206384F83E0001B0F0BD2DE9F04776
:1015400084B0984617460E460446FFF73FFF94F8CE
:101550003D10202923D1054620688169890719D5C6
:10156000FFF734FF401B1928F6D900202021206303
:1015700084F83D1084F83E00206C04F13C0940F0F2
:10158000200020640220002189F8001004B0BDE88A
:10159000F08700BFA14619F83C1F012904D10220A1
:1015A00004B0BDE8F08700BF012289F8002003687D
:1015B000DDE90D1A0C9ADB0703D1036843F0010340
:1015C0000360036823F400630360222084F83D0075
:1015D000402084F83E000020206462626185608DB6
:1015E000314620850020CFF6FF70E06220463A4663
:1015F0004346CDE900A502F0B1FB18B1012004B0CB
:10160000BDE8F087208DA8B102282BD0012835D164
:1016100021680A6822F480620A60002203924A6903
:1016200003928A690392039A0A6842F400720A607C
:101630002CE000BF0020039020684169039181697C
:1016400003910399016841F400710160202084F83E
:101650003D00002084F83E00002189F8001004B00D
:10166000BDE8F08721680A6822F480620A600A688F
:1016700042F400620A600022039202E0002103911A
:1016800021684A6903928969039103990AF1010665
:1016900080B2032818D8022842D0012856D1BAF1C6
:1016A000000F00F0AB802068014651F8142F52065D
:1016B00000F1A8800868C00600F1E280FFF786FE0E
:1016C000401B5045EFD9D0E0BAF1000F10D000BF59
:1016D0002068014651F8142F52060ED40868C0063F
:1016E00000F1CE80FFF772FE401B5045F0D9BCE000
:1016F00020684169490640F1B1800069616A08705B
:10170000606A2268411C208D616201382085638DEA
:10171000013B638553695B0740F18080106973E08A
:1017200020684169490747D4002E59D0BAF1000F0B
:1017300000F09980FFF74AFE401B504500F295806B
:10174000206841694907F5D536E000BF2068416946
:1017500049070FD4002E65D0BAF1000F00F0838046
:10176000FFF734FE401B504500F27F80206841693E
:101770004907F5D5016821F4806101600069616A5B
:101780000870606A218D013001396062218520680E
:10179000618D01396185416949070DD4002E4FD013
:1017A000BAF1000F5FD0FFF711FE401B50455CD827
:1017B000206841694907F6D5016841F4007101606C
:1017C0000069616A0870606A2268411C6162218D4B
:1017D00001392185618D013961851169417014E0FC
:1017E00041694907E8D4416949075CBF41695FEA3B
:1017F0004171E1D441694907F2D5DDE720684169CB
:1018000049062BD50069616A0870606A218D013034
:101810006062481E2085618D0139618501047FF475
:1018200037AF13E741694907A4D4416949075CBF51
:1018300041695FEA41719DD441694907F2D599E751
:1018400041694907B8D4416949075CBF41695FEA0A
:101850004171B1D441694907F2D5ADE750F8141F81
:10186000C90601460CD4FFF7B1FD002020212063FA
:1018700084F83D1084F83E00206C40F020000AE01F
:101880006FF01000086000202021206384F83D10D4
:1018900084F83E00206C20640120002189F80010AB
:1018A00004B0BDE8F08700002DE9F04383B099460D
:1018B00016460F460446FFF789FD94F83D1020298F
:1018C0001ED1054620688169890715D5FFF77EFD81
:1018D000401B1928F6D900202021206384F83D10F0
:1018E00084F83E00216C41F02001216484F83C0022
:1018F000022003B0BDE8F08394F83C10012903D125
:10190000022003B0BDE8F083012284F83C20036884
:10191000DDE90B180A9ADB0703D1036843F00103E2
:101920000360036823F400630360212084F83D0012
:10193000402084F83E000020206462626185608D52
:10194000394620850020CFF6FF70E06220463246FF
:101950004B46CDE9008502F08FFB18B1012003B0A2
:10196000BDE8F083208D002850D0206808F10106E2
:10197000014651F8142F12062CD49EB1B8F1000F75
:101980005AD000BF086840055ED4FFF71FFD401B1A
:10199000404556D82068014651F8142F1206F1D55B
:1019A00018E000BF0A6852054ED40A68120611D426
:1019B0000A68520548D40A6812060BD40A68520510
:1019C00042D40A68120605D40A6852053CD40A6853
:1019D0001206E7D5626A114611F8013B0361238DB7
:1019E0006162591E2185678D013F678547697F07C1
:1019F0000AD50F0408D051780161911C6162991ECB
:101A00002185628D013A62850904B1D120464146A3
:101A10002A4602F06BFC38BB2068016841F4007173
:101A20000160202084F83D00002084F83E0084F806
:101A30003C0003B0BDE8F0830868400504D4FFF71C
:101A4000C5FC202004E000BF6FF480600860042023
:101A500000212022216384F83D2084F83E10226C6E
:101A60001043206484F83C10206C04287FF476AF87
:101A70002068016841F400710160012003B0BDE8F5
:101A8000F0830000016845F20040C4F2000081428A
:101A900018BF7047B0B586B0002443F630050194F6
:101AA000C4F20205296800F5D83041F0020129602E
:101AB000296801F0020101910199C02101911221CF
:101AC000CDE90214032104910421059101A9FFF736
:101AD000A3FB0094286940F400102861286900F4F1
:101AE00000100090009806B0BDE8B04070470000BC
:101AF00040F2000040F2FC31C2F20000C2F20001EC
:101B000000780A68104408607047000080B543F60A
:101B10000040C4F20200016841F4007101600168F4
:101B200041F480610160016841F48071016003202B
:101B300000F088F8002000F005F800F027F80020F9
:101B400080BD000070B540F20006C2F2000640F20F
:101B500018013278C2F200014FF47A730968B3FBBE
:101B6000F2F20446B1FBF2F1084600F0C7FF0F2C79
:101B70004FF0010508D838B94FF0FF302146002258
:101B8000002500F033F87460284670BD82B0002054
:101B900043F640010190C4F202014A6842F48042D7
:101BA0004A604A6802F480420192019A00900868F3
:101BB00040F080500860086800F080500090009865
:101BC000052002B000F03EB8002848BF704700F082
:101BD0001F01012202FA01F11C2202EAD0004EF29A
:101BE0000012CEF2000281507047000010B54EF690
:101BF0000C5CCEF2000CDCF80030C3F3022E8EF049
:101C00000704042C28BF0424BEF103034FF0FF3E59
:101C10000EFA04F438BF0023A14399400EFA03F3EF
:101C20009A43114300F00F0200F160430901043AA6
:101C300003F564436244002848BF02F10C031970A5
:101C400010BD00004EF60C51CEF200010A684FF6AE
:101C5000FF031A4060F30A2242F0806040F0FD70FA
:101C600008607047002804BF012070472DE9F0414B
:101C700043F60808C4F202080446D8F8F8030D46F3
:101C800000F00700884207D288F8F853D8F8F80324
:101C900000F00700A84277D12068810717D54107D7
:101CA00005D5D8F8001041F4E051C8F8001001073C
:101CB00005D5D8F8001041F46041C8F80010D8F8F4
:101CC0000010A26821F0F0011143C8F80010C0070D
:101CD00040D1D8F8F80300F00700A84207D988F8E7
:101CE000F853D8F8F80300F00700A8424CD1206858
:101CF000410707D5D8F80010E26821F4E0511143FC
:101D0000C8F80010000708D5D8F80000216920F4B1
:101D1000604040EAC100C8F8000000F07DF8D8F843
:101D2000001046F6C422C1F30311C0F60002515C54
:101D300040F2180220FA01F140F20400C2F2000061
:101D40000068C2F200021160FFF7FCFE0020BDE84F
:101D5000F08100BF6068811E022907D258F8081C74
:101D600089015CBF0120BDE8F08111E0012807D1A5
:101D700058F8081C89035CBF0120BDE8F08107E02A
:101D800058F8081C890703D40120BDE8F08100BF82
:101D9000D8F8001021F003010843C8F80000FFF74D
:101DA00015FB064641F28837D8F80000616800F05C
:101DB0000C00B0EB810F8CD0FFF708FB801BB84202
:101DC000F2D90320BDE8F08140F2180043F6080183
:101DD000C2F20000C4F202010068096846F6D4228B
:101DE000C1F38221C0F60002515CC8407047000078
:101DF00040F2180043F60801C2F20000C4F20201EA
:101E00000068096846F6D422C1F34231C0F60002E8
:101E1000515CC8407047000010B543F60404C4F29A
:101E20000204606800F00C0142F200400829C0F290
:101E3000F40007D0042918BF10BD41F20020C0F201
:101E40007A0010BD216801F03F0221682368490231
:101E5000C3F3881106D4A1FB00010023FEF7B0F9FB
:101E600007E000BF41F20020C0F27A004843B0FB17
:101E7000F2F021680222C1F3014102EB4101B0FB03
:101E8000F1F010BD002804BF012070472DE9F0419A
:101E900082B00446007843F60006C007C4F202068A
:101EA0000CD0B06800F00C00042840F0818030684D
:101EB000800303D56068002800F06A8120788007DD
:101EC0001BD5B06810F00C0F09D0B06800F00C0002
:101ED000082840F087807068400200F183803068F5
:101EE000800703D5E068012840F0528130682169FD
:101EF00020F0F80040EAC10030602078000713D4D9
:101F0000207840072AD4A569002D00F03C81B068F4
:101F100000F00C00082840F0A180012D40F0108155
:101F2000012002B0BDE8F0816069002840F20000A5
:101F3000C4F2472000F07E800121C0F8801EFFF728
:101F400045FA0546706F8007DAD4FFF73FFA401B69
:101F50000228F7D9032002B0BDE8F081306C5FEAB7
:101F6000C0080AD400200190306C40F080503064EA
:101F7000306C00F080500190019847F20007C4F2E5
:101F800000073868C00547D4386840F4807038606E
:101F9000FFF71CFA054600BF3868C0053CD4FFF7C0
:101FA00015FA401B0228F7D9032002B0BDE8F081E2
:101FB000B06800F00C00082803D1706840023FF5BB
:101FC00076AF6068B0F5803F07D0B0F5A02F40F045
:101FD0009B80306840F480203060306840F480306E
:101FE00030609BE0E06800285CD00020C4F247200D
:101FF00001210160FFF7EAF9054600BF306880075C
:102000003FF574AFFFF7E2F9401B0228F6D9032031
:1020100002B0BDE8F08100BFA068012805D0052806
:1020200054D1306F40F004003067306F40F0010051
:10203000306755E00021C0F8801EFFF7C7F905465C
:10204000706F80077FF55CAFFFF7C0F9401B022877
:10205000F6D9032002B0BDE8F08100BF0027C4F22A
:10206000472700203866FFF7B1F9022D05460DD14C
:102070003068800140F19080FFF7A8F9401B0228EA
:102080004FF00300F4D902B0BDE8F0813068800160
:1020900079D5FFF79BF9401B02284FF00300F5D9D3
:1020A000F1E700BF0020C4F2472000210160FFF7E4
:1020B0008DF90546306880077FF51FAFFFF786F979
:1020C000401B02284FF00300F4D9DCE7316F0028F1
:1020D00021F001013167316F21F0040131677DD0BA
:1020E000FFF774F9054641F2883700BF306F80076B
:1020F00000F18680FFF76AF9401BB842F6D9032049
:1021000002B0BDE8F08100BF3168002821F48031C1
:102110003160316821F4802131607BD0FFF756F9BE
:10212000054600BF306880033FF5C8AEFFF74EF9A3
:10213000401B6428F6D9032002B0BDE8F08100BF3F
:102140007068E16900F480028A4221D1216A00F0BE
:102150003F028A421CD147F6C071626A0140B1EB6E
:10216000821F15D1A16A4FF6FF73C903994300F48A
:102170004032A1F580318A420AD1E16A00F07060F4
:10218000B0EB016F04D1002002B0BDE8F08100BFC8
:10219000012002B0BDE8F08104F11C052FCD0843F9
:1021A00040EA8210D9034FF6FF729143A1F58031C6
:1021B00040EA05600843706001203866FFF706F9C1
:1021C000044600BF30688001DDD4FFF7FFF8001B34
:1021D00002284FF00300F5D955E700BFFFF7F6F8E6
:1021E000054641F2883700BF306F800708D5FFF7FA
:1021F000EDF8401BB8424FF00300F5D943E700BFAC
:10220000B8F1000F3FF57FAE306C20F080503064A5
:1022100079E600BFFFF7DAF8054600BF30688003B3
:102220007FF54CAEFFF7D2F8401B64284FF0030057
:10223000F4D928E770B538B10446406A30B10020BF
:10224000206104F1140007E0012070BD6068B0F562
:10225000827F03D004F11C00002101600026A662E9
:1022600094F8510020B9204684F8506000F03CF802
:10227000022084F8510094E80F0001F4827105688F
:1022800002F4044225F040050560114403F40062A5
:102290002369114403F002026369114403F001024F
:1022A000A369E569114403F40072114405F0380292
:1022B000256A114405F08002A56A114305F4005215
:1022C00011430160626A042101EA134102F0100225
:1022D00011444160C16921F40061C161012066655A
:1022E00084F85100304670BD80B586B0006843F672
:1022F0000002C4F2000200219042CDE90411CDE9B0
:102300000211019124D043F20001C4F2010188427C
:1023100049D1002043F630010090C4F202014A691D
:1023200042F480524A614A6902F480520092009A53
:102330000090086840F0010008600868E02100F0A3
:102340000100009000980020C4F202001FE000BFCE
:1023500043F630000091C4F20200026942F4804268
:102360000261026902F480420092009A00910168C1
:1023700041F00201016000684FF4604100F002008A
:10238000009000980020C4F2020000F580600191E6
:10239000022102910021039103210491052105915D
:1023A00001A9FEF739FF06B080BD00002DE9F0431A
:1023B00081B0044640681D461746B0F5827F0E4640
:1023C00002D1A068002841D094F85000012803D120
:1023D000022001B0BDE8F0834FF0010984F850906D
:1023E000FEF7F4FF94F8511001292DD18046002EFC
:1023F0004FF0010018BF002F00F0C580042000211D
:1024000084F851006165A663A787E7872163A186E9
:10241000E186A2682068B2F5004F216461644FD163
:10242000016821F040010160016821F480410160F0
:102430000168490647D5E168E08F00294BD00028A4
:102440007AD0681C1BD12AE002209CE0042084F88A
:1024500051002046314632463B46009500F0C4F913
:1024600001B0BDE8F08300BFC068A16B21F8020B8A
:10247000A163E08F0138E087E08F00285CD02068FE
:102480008168C907F0D1FEF7A1FFA0EB0800A842C0
:10249000F2D33AE0FEF79AFFE08F00284CD0206894
:1024A0008168C907F6D0C068A16B21F8020BA1634F
:1024B000E08F0138E087E08F0028F0D13CE000BFDA
:1024C00001684906B7D4016841F040010160E16844
:1024D000E08F0029B3D178B3681C0CD11CE000BF99
:1024E000007BA16B0870A06B0130A063E08F013806
:1024F000E087E08F00B320688168C907F0D1FEF75C
:1025000065FFA0EB0800A842F3D303203BE000BF27
:10251000FEF75CFFE08F78B120688168C907F7D0CB
:10252000007BA16B0870A06B0130A063E08F0138C5
:10253000E087E08F0028EFD16068B0F5827F0ED190
:10254000A068B0F5004F02D0B0F5806F0AD12168C5
:10255000B0F5806F0A6822F040020A6002D120467E
:10256000012101E0204680212A46434602F0F0FF87
:1025700028B1606D40F02000606520206065606DCE
:10258000002818BF0120002184F8519084F85010D1
:1025900001B0BDE8F08300002DE9F04383B00446AC
:1025A00090F85000012803D1022003B0BDE8F08369
:1025B0004FF001091D4616460F4684F85090FEF76D
:1025C00005FF94F85110012944D18046002F4FF0A7
:1025D000010018BF002E00F0D4800320002184F8F1
:1025E000510061652763A686E686A163A187E1871E
:1025F000A0682164B0F5004F2068616407D10168CC
:1026000021F040010160016841F4804101600168EE
:10261000490603D4016841F0400101606168731EFE
:10262000E268B1FA81F1B3FA83F349095B09B2F5C3
:10263000006F41EA03013BD131B137F8021BC160A1
:102640002763E08E0138E086E08E00286AD0681C9F
:102650000DD11CE0022094E0216B31F8022BC26006
:102660002163E08E0138E086E08E00285AD0206891
:1026700081688907F0D4FEF7A9FEA0EB0800A84204
:10268000F2D338E0FEF7A2FEE08E00284AD02068A0
:1026900081688907F6D5216B31F8022BC26021636E
:1026A000E08E0138E086E08E0028F0D13AE000BFED
:1026B00039B139780173206B01302063E08E013825
:1026C000E086E08E70B3681C0BD11BE0216B0978AB
:1026D0000173206B01302063E08E0138E086E08ECC
:1026E00000B3206881688907F0D4FEF76FFEA0EB85
:1026F0000800A842F3D3032043E000BFFEF766FEC4
:10270000E08E78B1206881688907F7D5216B097858
:102710000173206B01302063E08E0138E086E08E8B
:102720000028EFD140F21800C2F20000006849F61C
:102730008171C1F25E61A0FB0101480D4FF47A7115
:10274000484302906068B0F5827F23D12046802103
:102750002A46434602F0FCFE28B1606D40F020009E
:10276000606520206065A06838B90020019020686D
:10277000C1680191806801900198606D002818BFC0
:102780000120002184F8519084F8501003B0BDE876
:10279000F08300BF02980028E5D00298013802902B
:1027A000206880680006DED502980028DBD00298F9
:1027B00001380290206880680006D4D5029800286D
:1027C000D1D0029801380290206880680006CAD5EE
:1027D00002980028C7D002980138029020688068CB
:1027E0000006D7D4BFE700002DE9F04383B00446CC
:1027F00090F85000012803D1022003B0BDE8F08317
:1028000001201E4615460F4684F85000FEF7DEFDF7
:1028100094F85110814601290DD06068B0F5827F8F
:1028200040F0A28004294FF0020040F05E81A168D0
:10283000002940F05A81002F4FF0010018BF002DF1
:1028400000F05381002E00F0508194F851000021D7
:1028500004281CBF052084F851006165A563E68744
:10286000A6872763E6862068A686216461640168DE
:10287000490603D4016841F0400101606168731E9C
:10288000E268B1FA81F1B3FA83F3DDF828804909EF
:102890005B09B2F5006F41EA030167D131B137F846
:1028A000021BC1602763E08E0138E086012518F124
:1028B000010032D102E000BFFEF788FDE08E18B9BA
:1028C000E08F002800F0BA802068816889070CD565
:1028D000E18E51B1012D08D1216B002531F8022B79
:1028E000C2602163E18E0139E1868168C907E3D0C6
:1028F000E18F0029E0D0C068A16B012521F8020B0F
:10290000A163E08F0138E087D6E700BFFEF75EFDE8
:10291000A0EB0900404580F0E780E08E18B9E08F19
:10292000002800F08B802068816889070CD5E18E33
:1029300051B1012D08D1216B002531F8022BC26065
:102940002163E18E0139E1868168C907DED0E18F1C
:102950000029DBD0C068A16B012521F8020BA1631F
:10296000E08F0138E087D1E70220BEE039B1397845
:102970000173206B01302063E08E0138E086012571
:1029800018F1010032D101E0FEF720FDE08E10B910
:10299000E08F002852D02068816889070ED5E18E2B
:1029A00061B1012D0AD1216B002509780173216BDA
:1029B000206801312163E18E0139E1868168C90710
:1029C000E2D0E18F0029DFD0C068A16B012508703B
:1029D000A06B0130A063E08F0138E087D4E700BF2F
:1029E000FEF7F4FCA0EB090040457DD2E08E08B96B
:1029F000E08F18B32068816889070ED5E18E61B138
:102A0000012D0AD1216B002509780173216B206803
:102A100001312163E18E0139E1868168C907DFD088
:102A2000E18F0029DCD0C068A16B01250870A06B84
:102A30000130A063E08F0138E087D1E740F2180051
:102A4000C2F20000006849F68171C1F25E61A0FB2C
:102A50000101480D4FF47A71484302906068B0F567
:102A6000827F0FD12046802142464B4602F070FD06
:102A700060B3606D40F0200060652020606501203B
:102A800033E000BF029808B3029801380290206832
:102A9000806800061AD50298C0B1029801380290E9
:102AA00020688068000611D5029878B10298013834
:102AB000029020688068000608D5029830B102981C
:102AC00001380290206880680006DBD4A0680028E6
:102AD0004FF0000009D101902168CA68019289680D
:102AE0000191019901E000BF0320012184F85110F8
:102AF000002184F8501003B0BDE8F083411E00208F
:102B0000B0EB116F1CBF012070474EF21002CEF2E5
:102B1000000251604EF62351CEF20001F0230B70FB
:102B200007219060116070477047000070470000F7
:102B300090F83C20012A4FF0020254D010B580F8E2
:102B40003D200268D2F804E0D2F808C00C682EF0EC
:102B50007003234341F2FF74C4F20004A2425360A5
:102B60000EDC40F2FF73C4F200039A4216DCB2F1AD
:102B7000804F2BD040F20043C4F2000324E000BF9A
:102B800040F2FF33C4F201039A4213DC41F6000322
:102B9000C4F200039A4219D0002313E040F6000368
:102BA000C4F200039A4211D040F60043C4F200037D
:102BB0000AE000BF44F20003C4F201039A4205D0C8
:102BC00040F20043C4F201039A4204D149682CF058
:102BD0008003194391600121002280F83D1080F8A4
:102BE0003C20BDE81040104670470000002804BF9C
:102BF0000120704710B5044690F83D0028B9002028
:102C000084F83C00204600F01FF8022084F83D00C4
:102C10002068211D02F080FD012084F8460084F820
:102C20003E0084F83F0084F8400084F8410084F8B6
:102C3000420084F8430084F8440084F8450084F896
:102C40003D00002010BD000010B582B0006840F2C9
:102C50000041C4F20001884216D0B0F1804F2FD15C
:102C60000020019043F64000C4F2020001680122F6
:102C700041F0010101600068012100F001000190B4
:102C800001981C201C2412E00020009043F6400014
:102C9000C4F202000168002241F0020101600068F4
:102CA000002100F00200009000981D201D24FEF776
:102CB0009DFF204602B0BDE81040FEF785BF00BF73
:102CC00002B010BD90F83D1001291CBF01207047D3
:102CD000022180F83D10006841F2FF72C168C4F221
:102CE0000002904241F00101C1600DDC40F2FF7131
:102CF000C4F20001884215DCB0F1804F2AD040F2C6
:102D00000041C4F2000123E040F2FF31C4F20101AE
:102D1000884213DC41F60001C4F20001884219D058
:102D2000002113E040F60001C4F20001884211D0F6
:102D300040F60041C4F200010AE000BF44F2000185
:102D4000C4F20101884205D040F20041C4F2010101
:102D5000884206D1816801F00701062904BF0020DE
:102D60007047016841F001010160002070470000D8
:102D700090F83C20012A4FF0020200F0C58080B597
:102D800080F83D20D0F800C04FF67772DCF80830AC
:102D900023EA0202CCF808200B684F2B28DC1F2BFB
:102DA00044DD202B45D0302B43D0402B40F0AE806B
:102DB000D1F804E0C968DCF82030DCF8202022F0EB
:102DC0000102CCF82020DCF8182022F0F00242EAC0
:102DD000011123F00A0242EA0E02CCF81810CCF8D6
:102DE0002020DCF8081041F0470121F0300180E09C
:102DF0006F2B27DDB3F5005F48D0B3F5805F7AD045
:102E0000702B40F08380D1E901E3C968DCF8082029
:102E100043EA0E0322F47F4243EA01211143CCF836
:102E20000810DCF8081041F0770162E00BB1102BBC
:102E30006CD1DCF8081021F07001194341F0070152
:102E400057E000BF502B35D0602B5FD1D1F804E0A4
:102E5000C968DCF8203023F01003CCF82030DCF80F
:102E60001830DCF8202023F4704322F0A00243EA5B
:102E7000013142EA0E12CCF81810CCF82020DCF810
:102E8000081041F0670121F0100132E0D1E901E3BF
:102E9000C968DCF8082043EA0E0322F47F4243EAC3
:102EA00001211143CCF80810DCF8081041F48041EE
:102EB0001FE000BFD1F804E0C968DCF82030DCF87E
:102EC000202022F00102CCF82020DCF8182022F08B
:102ED000F00242EA011123F00A0242EA0E02CCF8A3
:102EE0001810CCF82020DCF8081041F0570121F030
:102EF0002001CCF808100022012180F83D100021AB
:102F000080F83C10BDE88040104670470122F3E78E
:102F10007047000010B5016804460869800744BF87
:102F2000C8685FEA807039D40869400744BFC86840
:102F30005FEA40703ED40869000744BFC8685FEA92
:102F4000007045D40869C00644BFC8685FEAC06025
:102F50004AD40869C0071CBFC8685FEAC07051D175
:102F60000869000644BFC8685FEA006052D4086977
:102F7000400644BFC8685FEA406053D408698006D1
:102F800046BFC8685FEA806010BD6FF0200220462F
:102F90000A61BDE81040FFF7C9BD00BF6FF0020035
:102FA0000861012020778869800743D02046FFF719
:102FB000AFFF45E06FF004000861022020778869C8
:102FC00010F4407F40D02046FFF7A2FF42E000BF50
:102FD0006FF00800086104202077C86980073DD0A1
:102FE0002046FFF795FF3FE06FF0100008610820D2
:102FF0002077C86910F4407F3AD02046FFF788FF59
:103000003CE000BF6FF001000861204600F028FAA4
:103010002168A5E76FF0800008612046FFF784FD76
:103020002168A4E76FF040000861204600F028FA0C
:103030002168A3E7204600F025F8204600F07EF93D
:103040002168002020776FE7204600F01BF820461B
:1030500000F074F92168002020776CE7204600F02A
:1030600011F8204600F06AF921680020207769E70E
:10307000204600F007F8204600F060F921680020A3
:10308000207766E77047000090F83C30012B04BFC2
:10309000022070474FEAB202032A00F201812DE9B3
:1030A000F043DFE802F0033F7FBF00BF036840F258
:1030B00000461A6A43F4806522F001021A621C6A13
:1030C0001A46D3F804C052F818EF8F6824F00204AF
:1030D000C4F20106B54244EA070405D1CF6824F0E2
:1030E0000C0427F004073C430F68B54206D1D1E930
:1030F00005582CF440762E4346EA080C2EF0730651
:103100003743C3F804C09F614F6809695F631C625D
:103110009F6947F008079F619F6927F004079F6137
:10312000B2E000BF036840F200481A6A43F48065C9
:1031300022F010021A621C6A1A46D3F804C052F830
:1031400018EF8F6824F02004C4F20108454544EAD2
:10315000071407D1CF686FF0400624F0C00406EAD8
:1031600007163443D1F80090454506D1D1E90556FC
:103170002CF440672E4347EA860C2EF4E64747EAD4
:103180000927C3F804C09F614F6809699F631C62E7
:103190009F6947F400679F619F6927F480679F617B
:1031A00071E000BF036840F200481A6A43F480658A
:1031B00022F480721A621C6A1A46D3F804C052F8CC
:1031C0001CEF8F6824F40074C4F20108454544EAFA
:1031D000072408D1CF6840F2FF463F0224F4406440
:1031E00027EA06063443D1F80090454506D1D1E9D7
:1031F00005562CF440572E4347EA061C2EF0730761
:1032000047EA0907C3F804C0DF614F680969DF6353
:103210001C62DF6947F00807DF61DF6927F00407F8
:10322000DF6131E0036840F200451A6A43F48067C9
:1032300022F480521A621A46D3F820C05C6852F811
:103240001CEFD1F800808E68C4F20105AF4204D1B2
:103250004D6924F4804444EA85142CF4005747EA6D
:1032600006372EF4E64646EA08265C60DE614E68C4
:1032700009691E641F62DF6947F40067DF61DF6967
:1032800027F48067DF610902136819431160002188
:10329000BDE8F043002280F83C200846704700BF9C
:1032A0000121002280F83C2008467047002804BF16
:1032B0000120704710B5044690F83D0028B9002061
:1032C00084F83C00204600F01FF8022084F83D00FE
:1032D0002068211D02F020FA012084F8460084F8BD
:1032E0003E0084F83F0084F8400084F8410084F8F0
:1032F000420084F8430084F8440084F8450084F8D0
:103300003D00002010BD0000006840F60001C4F23E
:103310000001884218BF704781B00020009043F63A
:103320004000C4F20200016841F00401016000683D
:1033300000F004000090009801B070477047000052
:1033400041B1082910D0042914BF00F1410200F155
:103350003F020BE090F83E20012A1CBF012070477D
:10336000022280F83E2013E000F140021278012A88
:103370001CBF012070470222082907D0042914BF6E
:1033800080F8412080F83F2002E000BF80F8402014
:10339000006801F01F010122036A02FA01F123EA29
:1033A00001020262026A114341F2FF72C4F200029A
:1033B0009042016210DC40F2FF71C4F200018842C9
:1033C0001CDCB0F1804F3FD040F20041C4F200015C
:1033D000884239D03DE000BF40F2FF31C4F2010124
:1033E000884219DC41F60001C4F2000188422BD06A
:1033F0000021C4F2010188421AD02AE040F60001FF
:10340000C4F2000188421FD040F60041C4F200011E
:10341000884219D01DE000BF44F20001C4F201014E
:10342000884211D040F20041C4F20101884210D11B
:10343000416C40F2004340F48062C4F2010341F465
:1034400000419A42416404D1816801F007010629D4
:1034500003D0016841F001010160002070470000C5
:1034600040F24021C2F20001884218BF704740F28A
:103470003000C2F2000001680131016070470000B5
:10348000704700007047000070470000B0B582B080
:10349000044600680168C368426901F02F05202DC9
:1034A00003F0200506D12DB1204602B0BDE8B040A2
:1034B00002F04CBB5FEA017C1EBF02F0010E03F478
:1034C000907212EB0E0243D1226BCD0618D5012A61
:1034D00016D113F0100213D000210191016801915F
:1034E000416801910199406940063BD4A08DE18D6E
:1034F000E28D002A18BF884240F0EA8102B0B0BDD8
:103500000A0640F1DF8013F0800200F0DB8094F8BF
:103510003D102129F2D1A168B1F5805F03D1216965
:10352000002900F05982216A4A1C22620978416010
:10353000E18C01390A04E184E0D1C16821F0800105
:10354000C160C16841F04001C16002B0B0BD00BFC0
:10355000CA0718BF13F4807240F0C8804A0700F110
:10356000CB80D0E0A16B0868426893B2002BC5D035
:10357000A08D8342C2D2E285C969B1F5807F00F097
:103580009E80206850E8030F216820F4807041E895
:103590000302DAB1206850E8030F216820F480703C
:1035A00041E8030292B1206850E8030F216820F43B
:1035B000807041E803024AB1206850E8030F216897
:1035C00020F4807041E80302002ADAD1206850E834
:1035D000050F216820F0010041E80502BAB3206818
:1035E00050E8050F216820F0010041E8050272B3A0
:1035F000206850E8050F216820F0010041E805022D
:103600002AB3206850E8050F216820F0010041E846
:103610000502002ADAD11AE0206850E8050F216877
:1036200020F0400041E80502DAB1206850E8050FBB
:10363000216820F0400041E8050292B1206850E87E
:10364000050F216820F0400041E805024AB12068DA
:1036500050E8050F216820F0400041E80502002AEB
:10366000DAD1202084F83E0000202063206850E852
:10367000030F216820F0100041E80302DAB120684E
:1036800050E8030F216820F0100041E8030292B1D6
:10369000206850E8030F216820F0100041E8030281
:1036A0004AB1206850E8030F216820F0100041E87B
:1036B0000302002ADAD1A06BFDF74EFBA08DE18D4D
:1036C000401A7CE149067FF519AF13F040013FF441
:1036D00015AFC16821F04001C1602021204684F867
:1036E0003D1002B0BDE8B04000F034BB226C42F0A7
:1036F000010222644A0706D5BEF1000F03D0226CF6
:1037000042F0020222648A0706D5BEF1000F03D000
:10371000226C42F004022264BCF1000F06D55EEA7E
:10372000050203D0226C42F008022264226C002AB7
:103730003FF4E4AE890604D51DB1204602F006FA36
:1037400020684069216C00F0400001F00801401839
:1037500000F0B680206850E8030F216820F49070D4
:1037600041E80302BAB3206850E8030F216820F44F
:10377000907041E8030272B3206850E8030F21689B
:1037800020F4907041E803022AB3206850E8030F48
:10379000216820F4907041E80302002ADAD11AE08F
:1037A000206850E8050F216820F0010041E805027B
:1037B000DAB1206850E8050F216820F0010041E8E7
:1037C000050292B1206850E8050F216820F0010041
:1037D00041E805024AB1206850E8050F216820F051
:1037E000010041E80502002ADAD1206B012824D12A
:1037F000206850E8030F216820F0100041E8030220
:10380000DAB1206850E8030F216820F0100041E889
:10381000030292B1206850E8030F216820F01000E5
:1038200041E803024AB1206850E8030F216820F004
:10383000100041E80302002ADAD1202084F83E007B
:103840000020206320684069400640F1BF80206866
:1038500050E8050F216820F0400041E80502DAB188
:10386000206850E8050F216820F0400041E805027B
:1038700092B1206850E8050F216820F0400041E82F
:1038800005024AB1206850E8050F216820F0400089
:1038900041E80502002ADAD1A06B002800F09680EA
:1038A00045F65501C0F600010165FDF79DFA0028B7
:1038B0003FF424AEA06B016D02B0BDE8B0400847F4
:1038C0002046FFF7E1FD0020206402B0B0BD00BF3C
:1038D000401A00BF216851E8031F226821F490714B
:1038E00042E80313BBB3216851E8031F226821F4A7
:1038F000907142E8031373B3216851E8031F2268F3
:1039000021F4907142E803132BB3216851E8031F9F
:10391000226821F4907142E80313002BDAD11AE0F7
:10392000216851E8051F226821F0010142E80513D2
:10393000DBB1216851E8051F226821F0010142E84E
:10394000051393B1216851E8051F226821F0010198
:1039500042E805134BB1216851E8051F226821F0A8
:10396000010142E80513002BDAD1202184F83E1032
:1039700000212163216851E8031F226821F0100112
:1039800042E80313DBB1216851E8031F226821F0EC
:10399000100142E8031393B1216851E8031F226824
:1039A00021F0100142E803134BB1216851E8031FD5
:1039B000226821F0100142E80313002BDAD181B212
:1039C000204602B0BDE8B040FFF75CBD204602B023
:1039D000BDE8B040FFF758BD216A31F8022B6FF304
:1039E0005F2242602162A3E5002804BF01207047E6
:1039F00010B5044690F83D0028B9002084F83C003A
:103A0000204600F021F8242084F83D002068C16899
:103A100021F40051C160204602F018F920680169C4
:103A200021F490410161416921F02A014161C1689D
:103A300041F40051C16000202021206484F83D1031
:103A400084F83E1010BD000070B586B004462168B1
:103A500044F20042C4F2000200209142CDE9040089
:103A6000CDE9020001903FD044F60000C4F200000E
:103A7000814263D041F20000C4F20100814240F073
:103A8000AA80002043F630010090C4F202014A6986
:103A900042F010024A614A6902F010020092009A54
:103AA00000900A6842F001020A60096801F0010111
:103AB000009100994FF4C06101910221CDE90210FB
:103AC00003200490072005900020C4F2020001A901
:103AD000FDF7A2FB252000210022FEF787F8252014
:103AE000FEF772F806B070BD43F630010090C4F2E4
:103AF00002010A6942F400320A610A6902F40032E2
:103B00000092009A00900A6842F001020A60096877
:103B100001F00101009100990C2101910221CDE9F0
:103B2000021003200490072005900020C4F2020038
:103B300001A9FDF771FB06B070BD00BF002643F67A
:103B400030000096C4F20200016941F48021016155
:103B5000016901F48021009100990096016841F00B
:103B600008010160006801A900F0080000900098B9
:103B70004FF4407001900220CDE90206032004902A
:103B8000072005900020C4F2020000F54060FDF718
:103B900043FB40F2DC0546F22800C2F20005C4F205
:103BA00002004FF0006185E843004FF400304FF40D
:103BB00080624FF48073C5E908062846C5E90362B0
:103BC000C5E90566EB61FDF701FA002818BFFCF7AF
:103BD00017FEA563AC6306B070BD000070B582B07F
:103BE000044690F83E0020280ED113460A460029CC
:103BF0004FF0010018BF002B02D102B070BD00BF12
:103C000094F83C00012803D1022002B070BD00BF2F
:103C1000012084F83C00002622202663A262A385AE
:103C2000266484F83E00A06B45F6DD1C45F6393568
:103C30002168C0F6000CC0F60005C0E90FC545F6C6
:103C40006105C0F600050431C0E91356FDF770FAAE
:103C5000019620680168019140680190019884F8FC
:103C60003C6000BF206850E8030F216840F480707A
:103C700041E80302E2B1206850E8030F216840F4F4
:103C8000807041E803029AB1206850E8030F216870
:103C900040F4807041E8030252B1206850E8030FFD
:103CA000216840F4807041E80302002ADAD100BFA5
:103CB000206850E8050F216840F0010041E8050246
:103CC000BAB3206850E8050F216840F0010041E8D0
:103CD000050272B3206850E8050F216840F001002A
:103CE00041E805022AB3206850E8050F216840F03A
:103CF000010041E80502002ADAD11AE0206850E804
:103D0000050F216840F0400041E80502DAB1206863
:103D100050E8050F216840F0400041E8050292B1EB
:103D2000206850E8050F216840F0400041E8050296
:103D30004AB1206850E8050F216840F0400041E892
:103D40000502002ADAD1002002B070BD70470000E1
:103D50007047000070470000FEE700002DE9F043C7
:103D600083B0044600680B9D0A9E0768994647F495
:103D7000806707600768904647F480730360436973
:103D80000F46DA071DD1711C11D0002E00F03681CC
:103D9000FDF71CFB401BB04200F2328120684169F4
:103DA000C907F5D00DE000BF4169C90709D14169D4
:103DB000C90706D14169C90704BF41695FEAC171FA
:103DC000F2D007F0FE0707614169890738D44169DD
:103DD000721C29D0490529D4002E00F0398100BF7A
:103DE000FDF7F4FA401BB04200F2348120684169CB
:103DF000890725D441694905F2D517E0416989074A
:103E00001ED44169490511D44169890718D4416913
:103E100049050BD44169890712D44169490505D484
:103E2000416989070CD441694905E7D5016841F426
:103E3000007101606FF48061416104200BE100BFFB
:103E400000210291014651F8142F02924A68029211
:103E5000029A0A68120620D4002E00F0AB80721C71
:103E600051D10A68520500F1AD800A68120614D4D7
:103E70000A68520500F1A6800A6812060DD40A6885
:103E8000520500F19F800A68120606D40A6852059E
:103E900000F198800A681206E3D5B9F1010F45D008
:103EA0004FEA18210161014651F8142F12063DD442
:103EB000002E00F07F80721C2AD10A68520500F1A2
:103EC00081800A68120631D40A6852057AD40A68D9
:103ED00012062BD40A68520574D40A68120625D437
:103EE0000A6852056ED40A681206E6D51EE000BFC5
:103EF000FDF76CFA401BB04261D82068014651F8CA
:103F0000142F1206C9D408684005F1D55AE000BF45
:103F10000868400556D4FDF759FA401BB0424ED808
:103F20002068014651F8142F1206F1D55FFA88F186
:103F30000161014651F8142F12061AD4D6B3721C2F
:103F400033D10A6852053DD40A68120611D40A68B2
:103F5000520537D40A6812060BD40A68520531D4C8
:103F60000A68120605D40A6852052BD40A6812069C
:103F7000E7D50168002241F48071016020464FF0CE
:103F800001113346009500F005FA002850D0206852
:103F9000006844E0FDF71AFA401BB0420FD82068D1
:103FA000014651F8142F1206E3D408684005F1D5F4
:103FB00008E000BF0868400504D4FDF707FA202098
:103FC00004E000BF6FF4806008600420002120221C
:103FD000216384F83D2084F83E10226C1043206455
:103FE00084F83C10206C042841D12068016841F419
:103FF00000710160012003B0BDE8F083FDF7E6F930
:1040000000202021206384F83D1084F83E00216CBC
:1040100041F020012164216884F83C000868C00553
:1040200044BF4FF400702064032003B0BDE8F08368
:1040300047F0010C27680221C0F2010120463246F8
:104040002B46C7F810C003B0BDE8F04300F046BAF5
:10405000FDF7BCF9202000212022216384F83D20B7
:1040600084F83E10226C1043206484F83C10012038
:1040700003B0BDE8F08300002DE9F04381B00446B1
:10408000006890460268099D42F4807202604269AD
:10409000089E9946D2070F461DD1711C11D0002EE3
:1040A00000F0D280FDF792F9401BB04200F2CE80C2
:1040B00020684169C907F5D00DE000BF4169C90713
:1040C00009D14169C90706D14169C90704BF4169DE
:1040D0005FEAC171F2D007F0FE0101614169890711
:1040E00038D44169721C29D0490529D4002E00F02A
:1040F000E98000BFFDF76AF9401BB04200F2E4809E
:1041000020684169890725D441694905F2D517E03E
:10411000416989071ED44169490511D4416989075C
:1041200018D4416949050BD44169890712D4416902
:10413000490505D4416989070CD441694905E7D58A
:10414000016841F4007101606FF4806141610420F5
:10415000BBE000BF00210091014651F8142F0092EE
:104160004A680092009A0A6812061ED4002E00F0D7
:104170008580721C4DD10A68520500F187800A685B
:10418000120612D40A68520500F180800A681206ED
:104190000BD40A68520579D40A68120605D40A6855
:1041A000520573D40A681206E5D5B9F1010F43D060
:1041B0004FEA18210161014651F8142F12063BD431
:1041C000002E5BD0721C29D10A6852055ED40A68A1
:1041D000120631D40A68520558D40A6812062BD444
:1041E0000A68520552D40A68120625D40A68520594
:1041F0004CD40A681206E7D51EE000BFFDF7E6F8CA
:10420000401BB0423FD82068014651F8142F1206D7
:10421000CBD408684005F1D538E000BF08684005F8
:1042200034D4FDF7D3F8401BB0422CD820680146A7
:1042300051F8142F1206F1D55FFA88F101610020C0
:1042400001B0BDE8F08300BFFDF7C0F800202021D9
:10425000206384F83D1084F83E00216C41F0200179
:104260002164216884F83C000868C00544BF4FF40D
:1042700000702064032001B0BDE8F08308684005A9
:1042800004D4FDF7A3F8202004E000BF6FF48060A1
:104290000860042000212022216384F83D2084F856
:1042A0003E10226C1043206484F83C10206C0428DB
:1042B00017D12068016841F400710160012001B04C
:1042C000BDE8F083FDF782F8202000212022216341
:1042D00084F83D2084F83E10226C1043206484F85A
:1042E0003C10012001B0BDE8F083000070B5036808
:1042F000044653F8140F400737D40E46F1B1701C32
:1043000024D100BF1868400532D4186840072CD467
:10431000186840052CD41868400726D41868400552
:1043200026D41868400720D41868400520D418689F
:1043300040074FF0000048BF70BDE3E71868400534
:1043400016D4FDF743F8202016E000BF154600BF45
:10435000186840050CD4FDF739F8401BB042F2D87C
:10436000236853F8140F4007F2D5002070BD00BF3A
:104370006FF480601860042000212022216384F8FB
:104380003D2084F83E10226C10432064012084F804
:104390003C1070BD2DE9F04105461446DDF818804B
:1043A00001F47F002A681E46B0F5803F8FB23FD1EE
:1043B00050693840C01BB0FA80F04009A04277D164
:1043C000701C2BD0002E77D0FDF700F8A0EB080072
:1043D000B04273D8286840693840C01BB0FA80F0FA
:1043E0004009A042F0D063E050693840C01BB0FAE9
:1043F00080F04009A0425BD150693840C01BB0FA40
:1044000080F04009A04253D150693840C01BB0FA37
:1044100080F04009A0424FF000005DD15069384063
:10442000C01BB0FA80F04009A042DDD040E000BFE0
:1044300090693840C01BB0FA80F04009A04237D1E3
:10444000701C1DD0C6B300BFFCF7C0FFA0EB080076
:10445000B04233D8286880693840C01BB0FA80F079
:104460004009A042F0D023E090693840C01BB0FA68
:1044700080F04009A0424FF0000018BFBDE8F08175
:1044800090693840C01BB0FA80F04009A0420FD1BB
:1044900090693840C01BB0FA80F04009A04207D1B3
:1044A00090693840C01BB0FA80F04009A042DBD0D0
:1044B0000020BDE8F08100BFFCF788FF002020212C
:1044C000286385F83D1085F83E00296C41F02001F5
:1044D000296485F83C000120BDE8F081F0B581B089
:1044E000044600681D4643698FB203EA0701B942DA
:1044F00002D1002001B0F0BD4169164601321AD048
:1045000049050ED4A6B300BFFCF760FF401BB042C4
:1045100030D8206841693940B942EAD0416949053B
:10452000F2D5016841F4007101606FF4806141616E
:10453000042020E041694905F3D441693940B9427A
:10454000D7D041694905ECD441693940B942D0D04E
:1045500041694905E5D441693940B942C9D0416949
:104560004905DED441693940B942E3D1C1E700BF12
:10457000FCF72CFF202000212022216384F83D201D
:1045800084F83E10226C1043206484F83C10012013
:1045900001B0F0BDF0B583B044681F4615460E4625
:1045A0000DF10603682043210622A04710B103B095
:1045B000F0BD00BFBDF8061049BA00EE101ABDF8F4
:1045C0000810B8EEC00A49BA86ED000A00EE101ACB
:1045D000BDF80A10B8EEC00A49BA85ED000A00EE2F
:1045E000101AB8EEC00A87ED000A03B0F0BD000053
:1045F0002DE9F04784B0044646F27100C0F6000091
:1046000046F2490146F24502C0F60001C0F600023A
:1046100084E807004FF47A700DF10F01029040F228
:104620003C1080264FF001080091C2F20000D0211A
:104630006B2201238DF80F60CDF80480FDF734F96B
:10464000A168C8208847276800250DF10F0368205E
:104650006B2101228DF80F50B84767680DF10F03E9
:1046600068206B2101228DF80F50B8479DF80F107C
:1046700051A001F06FFD182027688DF80F000DF193
:104680000F0368201B210122B84727680DF10F0393
:1046900068201C2101228DF80F50B84727684FF081
:1046A00004090DF10E036820192101228DF80E90E6
:1046B000B84727688DF80E004FF0020A0DF10F037E
:1046C00068201A2101228DF80FA0B84727680DF144
:1046D0000F036820382101228DF80F50B847276852
:1046E0000DF10F0368206A2101228DF80F50B847A1
:1046F00027680DF10F036820232101228DF80F5048
:10470000B84727680DF10F036820372101228DF883
:104710000F60B84767680DF10F0368203721012249
:104720008DF80F50B84746F6F1269DF80F10C0F6E9
:104730000006304601F00EFD67680DF10F0368209A
:10474000752101228DF80F50B8479DF80F70304643
:10475000394601F0FFFC682F2AD127680DF10F03BD
:1047600068206B2101228DF80F80B84727680DF172
:104770000F0368206C2101228DF80F50B84727687D
:104780000DF10E036820192101228DF80E90B84713
:1047900027688DF80E000DF10F0368201A21012201
:1047A0008DF80FA0B8470BA001F0D4FC4FF0000823
:1047B000404604B0BDE8F0874D5055363035305F87
:1047C0005057525F4D474D54315F5245473A25642B
:1047D000200D0A006D707536303530B3F5CABCBB9C
:1047E000AFB3C9B9A60D0A0010B584B040F23400C9
:1047F00042F2000C01220021C2F20000C4F2010CBE
:104800004FF480330124C0F600720391047680F8DF
:104810002010C0E90A21C46180F83040C0E900C31B
:10482000C0E90211C0E90414FCF7BCF8002818BF65
:10483000FBF7E6FF0B20CDE9000440F23400C2F2A2
:10484000000069460294FCF703F8002818BFFBF744
:10485000D7FF04B010BD000082B0002043F6300145
:104860000190C4F202010A6842F480020A600A68F8
:1048700002F480020192019A0090086840F400104E
:104880000860086800F400100090009802B07047BB
:104890002DE9F04F87B0002543F6300006950195CD
:1048A000C4F20200016840F2000841F0800101609A
:1048B0000168C4F2020801F080010191019901959B
:1048C0000168012241F0040101600168102701F034
:1048D000040101910199019501684FF0010A41F02D
:1048E00001010160016801F0010101910199019547
:1048F000016841F002010160016801F002010191CB
:1049000001990195016841F00801016000681021DA
:1049100000F00800019001984046FCF751FD08F5B1
:104920000064204630210122FCF74AFD08F580662C
:10493000304641F601010122FCF742FD08F54069CD
:10494000484640F2E7410122FCF73AFDCDE9027A00
:1049500002AF4FF0030B404639460495CDF814B032
:10496000FCF75AFC3020CDE9020A20463946CDE951
:10497000045BFCF751FC41F60100CDE9020A304628
:104980003946CDE9045BFCF747FC4FF4806002A98F
:1049900081E8210430463946FCF73EFC40F2E7400E
:1049A000CDE9020A48463946CDE9045BFCF734FC00
:1049B0004FF4807002904FF40410CDE9030A404692
:1049C0003946FCF729FC172002210222FDF70EF9D7
:1049D0001720FDF7F9F807B0BDE8F08F80B540F279
:1049E0003C1045F20041C2F20000C4F2000141F661
:1049F000802200234FF4804CC0F2060280E80E00B3
:104A0000C0E9033CC0E90533C0E90733FCF7E4FC27
:104A1000002808BF80BDBDE88040FBF7F1BE000064
:104A200080B540F2901043F20001C2F20000C4F2DF
:104A300001014FF4827200234FF4007C80E80E00E5
:104A40000A21C0E90333C0E9053CC361C0E908336A
:104A5000C0E90A31FDF7EEFB002808BF80BDBDE8C4
:104A60008040FBF7CDBE000080B540F2E81043F671
:104A70000001C2F20000C4F200014FF48272002370
:104A800080E80E0000F114014FF4007C4FF0100E8E
:104A900081E808500A21C0E90333C0E90833C0E9BE
:104AA0000A31FDF7C7FB002808BF80BDBDE8804084
:104AB000FBF7A6BE80B586B040F240200021C2F2CE
:104AC000000042F20F7C0591CDE90311CDE9001100
:104AD0004FF0804240F28F63C0E9021C01618021E7
:104AE000C0E900238161FEF781F8002818BFFBF7B9
:104AF00087FE4FF48050029040F24020C2F2000046
:104B000002A9FEF735F9002818BFFBF779FE40F23D
:104B10004020C2F200006946FEF70AF8002818BFDC
:104B2000FBF76EFE06B080BD80B586B040F28820EF
:104B30000021C2F2000040F2004240F2E73C059141
:104B4000CDE90311CDE90011C4F2000240F28F63F8
:104B5000C0E9021C01618021C0E900238161FEF7E8
:104B600045F8002818BFFBF74BFE4FF48050029029
:104B700040F28820C2F2000002A9FEF7F9F80028EE
:104B800018BFFBF73DFE40F28820C2F200006946E4
:104B9000FDF7CEFF002818BFFBF732FE06B080BD40
:104BA000B0B590B040F6000540F2D020C4F2000548
:104BB0000021C2F2000041F28832CDE90811CDE9AE
:104BC0000611CDE90411C0E90051C0E902120161EA
:104BD00080218161FEF76AFB002818BFFBF710FEF9
:104BE00040F2D020C2F2000008A9FDF7A1FF002882
:104BF00018BFFBF705FE602001900020CDE9020000
:104C0000059040F2D020C2F2000001A90022FEF778
:104C10003BFA002818BFFBF7F3FD40F2D020C2F2A8
:104C2000000001A90422FEF72FFA002818BFFBF7A5
:104C3000E7FD40F2D020C2F2000001A90822FEF7F1
:104C400023FA002818BFFBF7DBFD40F2D024C2F2A4
:104C5000000401A920460C22FEF716FA002818BF0E
:104C6000FBF7CEFD2068A84202D010B0B0BD00BF57
:104C7000002043F630010B90C4F202010A6842F0B2
:104C800008020A60096801F008010B910B994FF4C2
:104C900070410B910221CDE90C10CDE90E0105F513
:104CA00001300BA9FCF7B8FA10B0B0BD80B540F2E6
:104CB000183041F20001C2F20000C4F201010023E9
:104CC0004FF00C0C4FF4E13280E80E00C0E90333E2
:104CD000C0E905C3C361FEF787FE002808BF80BD99
:104CE000BDE88040FBF78CBD80B540F25C3044F2FB
:104CF0000041C2F20000C4F2000100234FF00C0C8E
:104D00004FF4E13280E80E00C0E90333C0E905C387
:104D1000C361FEF769FE002808BF80BDBDE8804082
:104D2000FBF76EBD80B540F2A03044F60001C2F240
:104D30000000C4F2000100234FF00C0C4FF4964227
:104D400080E80E00C0E90333C0E905C3C361FEF784
:104D50004BFE002808BF80BDBDE88040FBF750BD7A
:104D6000FEE70000FEE700002DE9F04F85B040F2BD
:104D70000048C4F2020840464FF4805100224FF030
:104D80000009FCF71DFB40F2E81B3020C2F2000BCB
:104D90008DF80D0010240DF10D0103AA58460123D2
:104DA0008DF80C900094FDF71FFD0DF10F060DF12D
:104DB0000E074525584631463A4601238DF80F50D7
:104DC0008DF80E900094FDF70FFD584631463A4697
:104DD00001238DF80F508DF80E900094FDF704FD1F
:104DE000584631463A4601238DF80F508DF80E9003
:104DF0000094FDF7F9FC584631463A4601238DF8F8
:104E00000F508DF80E900094FDF7EEFC5846314699
:104E10003A4601238DF80F508DF80E900094FDF75F
:104E2000E3FC40464FF480510122FCF7C9FA4046AA
:104E30004FF480510022FCF7C3FA0DF1110104AACE
:104E4000584601238DF811408DF810900094FDF71D
:104E5000CBFC0DF113060DF11207FF255846314624
:104E60003A4601238DF813508DF812900094FDF707
:104E7000BBFC9DF812003146029058463A46012389
:104E80008DF813508DF812900094FDF7ADFC9DF84D
:104E900012003146019058463A4601238DF81350CE
:104EA0008DF812900094FDF79FFC9DF812A05846D3
:104EB00031463A4601238DF813508DF81290009434
:104EC000FDF792FC9DF81280584631463A46012380
:104ED0008DF813508DF812900094FDF785FC40F288
:104EE00000409DF81240C4F202004FF480510122AC
:104EF000FCF766FA0298019980F0450081F04501BF
:104F000008438AF04501084388F04501084384F0CE
:104F10004501084318BF012005B0BDE8F08F00002F
:104F20002DE9F04782B040F20048C4F20208404642
:104F30004FF4006100224FF00009FCF741FA4046AF
:104F40004FF480510022FCF73BFA40F2E815C2F220
:104F50000005032610240DF107010DF10602284675
:104F600001238DF807608DF8069000944FF0010A38
:104F7000FDF73AFC0DF107010DF106022846012369
:104F80008DF807608DF806900094FDF72DFC4046E3
:104F90004FF480510122FCF713FA40464FF4805140
:104FA0000022FCF70DFA30208DF807000DF1070103
:104FB0000DF10602284601238DF806900094FDF7B6
:104FC00013FC0DF107060DF10607284631463A4657
:104FD00001238DF807A08DF806900094FDF704FCDE
:104FE000284631463A4601238DF807A08DF80690F1
:104FF0000094FDF7F9FB284631463A4601238DF827
:1050000007A08DF806900094FDF7EEFB2846314688
:105010003A4601238DF807A08DF806900094FDF71D
:10502000E3FB284631463A4601238DF807A08DF868
:1050300006900094FDF7D8FB40464FF480510122C2
:10504000FCF7BEF940464FF480510022FCF7B8F956
:105050002A208DF807000DF107010DF10602284600
:1050600001238DF806900094FDF7BEFB0DF10706B5
:105070000DF10607284631463A4601238DF807A070
:105080008DF806900094FDF7AFFB284631463A466E
:1050900001238DF807A08DF806900094FDF7A4FB7E
:1050A000284631463A4601238DF807A08DF8069030
:1050B0000094FDF799FB284631463A4601238DF8C6
:1050C00007A08DF806900094FDF78EFB2846314628
:1050D0003A4601238DF807A08DF806900094FDF75D
:1050E00083FB40464FF480510122FCF769F94046AA
:1050F0004FF480510022FCF763F93D208DF8070042
:105100000DF107010DF10602284601238DF80690E6
:105110000094FDF769FB06208DF807000DF10701EB
:105120000DF10602284601238DF806900094FDF744
:105130005BFB40464FF480510122FCF741F94046A9
:105140004FF480510022FCF73BF93C208DF807001A
:105150000DF107010DF10602284601238DF8069096
:105160000094FDF741FB0DF107010DF10602284601
:1051700001238DF807A08DF806900094FDF734FB0D
:1051800040464FF480510122FCF71AF940464FF493
:1051900080510022FCF714F921208DF807000DF151
:1051A00007010DF10602284601238DF806900094B0
:1051B000FDF71AFB0DF107010DF106022846012348
:1051C0008DF807A08DF806900094FDF70DFB404682
:1051D0004FF480510122FCF7F3F840464FF4805120
:1051E0000022FCF7EDF822208DF807000DF10701F1
:1051F0000DF10602284601238DF806900094FDF774
:10520000F3FA0DF107010DF10602284601238DF88E
:1052100007A08DF806900094FDF7E6FA40464FF49B
:1052200080510122FCF7CCF840464FF48051002217
:10523000FCF7C6F825208DF807000DF107010DF1E8
:105240000602284601238DF806900094FDF7CCFA5B
:1052500058208DF807000DF107010DF106022846D0
:1052600001238DF806900094FDF7BEFA40464FF4F6
:1052700080510122FCF7A4F840464FF480510022EF
:10528000FCF79EF824208DF807000DF107010DF1C1
:105290000602284601238DF806900094FDF7A4FA33
:1052A0001A208DF807000DF107010DF106022846BE
:1052B00001238DF806900094FDF796FA40464FF4CE
:1052C00080510122FCF77CF840464FF480510022C7
:1052D000FCF776F826208DF807000DF107010DF197
:1052E0000602284601238DF806900094FDF77CFA0B
:1052F0000F208DF807000DF107010DF10602284679
:1053000001238DF806900094FDF76EFA40464FF4A5
:1053100080510122FCF754F840464FF4805100229E
:10532000FCF74EF820208DF807000DF107010DF174
:105330000602284601238DF806900094FDF754FAE2
:105340000E208DF807000DF107010DF10602284629
:1053500001238DF806900094FDF746FA40464FF47D
:1053600080510122FCF72CF840464FF400610122E5
:10537000FCF726F802B0BDE8F08700002DE9F04FF9
:1053800083B040F20049C4F20209044648464FF493
:10539000006100224FF0000AFCF712F848464FF473
:1053A00080510022FCF70CF840F2E818A020C2F26D
:1053B00000080DF10B060DF10A078DF80B004FF0F8
:1053C000100B404631463A4601238DF80AA0CDF82D
:1053D00000B0FDF709FA013C002500BF14F8010FE9
:1053E00031468DF80B0040463A4601238DF80AA05D
:1053F000CDF800B0FDF7F8F91F2D05F10105EDD34B
:1054000048464FF480510122FBF7DAFF48464FF43B
:1054100000610122FBF7D4FF48464FF48061FBF79F
:10542000C9FF0028F8D148464FF4805100220027D8
:10543000FBF7C6FF40F2E8150720C2F200058DF821
:105440000B0010260DF10B010DF10A022846012375
:105450008DF80A700096FDF7C7F94FF0FF080DF1BF
:105460000B010DF10A02284601238DF80B808DF8FF
:105470000A700096FDF7B8F99DF80A4048464FF4C7
:1054800080510122FBF79CFF48464FF480510022D7
:10549000FBF796FF27208DF80B000DF10B010DF1A6
:1054A0000A02284601238DF80A700096FDF79CF940
:1054B0000DF10B010DF10A02284601238DF80B4076
:1054C0008DF80A700096FDF78FF948464FF4805129
:1054D0000122FBF775FFE00608D42026A00658BF7E
:1054E0004FF0FF36F0B203B0BDE8F08F48464FF4FE
:1054F00080510022FBF764FF40F2E815E120C2F280
:1055000000058DF80B000DF10B010DF10A02284684
:1055100001238DF80A700096FDF766F90DF10B0175
:105520000DF10A02284601238DF80B808DF80A70D0
:105530000096FDF759F948464FF480510122FBF7D8
:105540003FFFF0B203B0BDE8F08F000070470000ED
:105550002DE9F04182B01E4690460D460446FBF709
:1055600035FF301A00EB0807FBF730FF40F2180157
:10557000C2F200010968C1F3CB317943019121687E
:105580008A682A40AA4227D1064618F101001FD096
:10559000FBF71CFF801BB84222D20198019900281A
:1055A000A1F1010101912168896808BF074601EA5C
:1055B0000500A842ECD00FE088682840A8420BD133
:1055C00088682840A84207D188682840A84203D1AB
:1055D00088682840A842EFD0002002B0BDE8F081E2
:1055E000D4E900014268B1F5827F22F0E002426016
:1055F0000AD1A168B1F5004F02D0B1F5806F03D197
:10560000016821F040010160A16AB1F5005F07D196
:10561000016821F400510160016841F4005101600A
:10562000012084F85100002084F85000032002B0CB
:10563000BDE8F08170470000FCF75ABAB0B592B0EF
:10564000002443F640000B94CDE90944CDE907441A
:105650000594CDE90344CDE901440094C4F202006D
:105660000168022541F080510160006800F080501F
:105670000090009847F200000094C4F20000016816
:1056800041F480410160006800F48040009000987F
:105690000120099010200A9008200E90A820CDE942
:1056A0000F050420119006A80695CDE90C54FCF7CF
:1056B000E9FB28B1EFF3108072B600BFFEE700BF30
:1056C0000F20CDE901054FF4A05004904FF4805015
:1056D000059001A805210394FCF7C4FA20B1EFF36B
:1056E000108072B6FEE700BF12B0B0BD4EF6885013
:1056F000CEF20000016841F47001016070470000C3
:1057000040F24020C2F20000FDF704BC40F28820C5
:10571000C2F20000FDF7FEBB10B540F6FF3E036885
:10572000C4F2000E40F2004C7045C4F2010C27DCBC
:10573000B0F1804F31D040F20042C4F200029042FA
:105740002BD040F60002C4F20002904225D041F670
:10575000FF72C4F20002904229DC70453CDCB0F1DB
:10576000804F5FD040F20042C4F20002904259D014
:1057700040F60002C4F20002904253D056E000BF4F
:1057800040F60042C4F20002904206D0604504D0C8
:105790000022C4F201029042D9D14A6823F070037A
:1057A000134341F6FF72C4F200029042D5DD43F686
:1057B000FF72C4F20102904222DC42F20002C4F203
:1057C000000290422ED00022C4F20102904229D061
:1057D000604527D02AE000BF40F60042C4F2000234
:1057E00090421FD041F60002C4F20002904219D04C
:1057F00041F60042C4F20002904213D016E000BF0E
:1058000044F20002C4F2010290420BD044F60002BE
:10581000C4F20102904205D044F20042C4F20102F7
:10582000904203D1CA6823F44073134323F08002EB
:105830004B69D1F800E08C681A430260C46240F4FE
:105840008062C0F828E0624504BF09690163012154
:10585000416110BD806B0021C185C184FDF714BE7C
:10586000806B01684A6990F83D30212B2DD112F0F0
:1058700080022AD00021C184016851E8031F026818
:1058800021F0C00142E80313DBB1016851E8031FB6
:10589000026821F0C00142E8031393B1016851E8A6
:1058A000031F026821F0C00142E803134BB10168F5
:1058B00051E8031F026821F0C00142E80313002BE6
:1058C000DAD1202180F83D100168496990F83E2026
:1058D000222A40F07D8011F0400179D00021C1855D
:1058E000016851E8031F026821F4907142E8031334
:1058F000BBB3016851E8031F026821F4907142E8CC
:10590000031373B3016851E8031F026821F4907117
:1059100042E803132BB3016851E8031F026821F426
:10592000907142E80313002BDAD11AE0016851E8C4
:10593000051F026821F0010142E80513DBB101688F
:1059400051E8051F026821F0010142E8051393B1F7
:10595000016851E8051F026821F0010142E80513C2
:105960004BB1016851E8051F026821F0010142E8CE
:105970000513002BDAD1016B012924D1016851E80C
:10598000031F026821F0100142E80313DBB1016834
:1059900051E8031F026821F0100142E8031393B19C
:1059A000016851E8031F026821F0100142E8031367
:1059B0004BB1016851E8031F026821F0100142E871
:1059C0000313002BDAD1202180F83E10002101635F
:1059D000016C41F010010164FDF756BD0168806B58
:1059E0000968C90500F19F800021C185016851E85F
:1059F000031F026821F4807142E80313E3B10168D8
:105A000051E8031F026821F4807142E803139BB13F
:105A1000016851E8031F026821F4807142E8031312
:105A200053B1016851E8031F026821F4807142E814
:105A30000313002BDAD100BF016851E8051F02688B
:105A400021F0010142E80513BBB3016851E8051FCD
:105A5000026821F0010142E8051373B3016851E8BF
:105A6000051F026821F0010142E805132BB301680C
:105A700051E8051F026821F0010142E80513002BDF
:105A8000DAD11AE0016851E8051F026821F04001EF
:105A900042E80513DBB1016851E8051F026821F0F7
:105AA000400142E8051393B1016851E8051F0268FF
:105AB00021F0400142E805134BB1016851E8051F90
:105AC000026821F0400142E80513002BDAD12021C1
:105AD00080F83E10016B012925D100BF016851E813
